:020000040800F2
:1000000018440020BB000008B9000008B90000082F
:1000100000000000000000000000000000000000E0
:10002000000000000000000000000000B90000080F
:100030000000000000000000B90000081D0D0008CD
:10004000B9000008B9000008B9000008000000006D
:10005000B9000008B9000008B9000008B90000089C
:1000600000000000B9000008B9000008B90000084D
:10007000B9000008B9000008B9000008B90000087C
:10008000B9000008B9000008B9000008000000002D
:10009000B9000008B9000008B9000008B90000085C
:1000A000B9000008B9000008B9000008B90000084C
:1000B000B9000008B9000008FEE710B500F01CF90F
:1000C000084A094B09498B4207D30021084B094ACA
:1000D000934205D300F054F9FEE701CA01C3F2E7E9
:1000E00002C3F5E7F80E0008080000208800002091
:0800F00088000020EC40002014
:1000F80070B50C006B2A00D96B222000184900F05B
:100108005BFE2000174A3D30136800211B051B0DBC
:10011800E3701B0A237113681B0C63711B0AA3711C
:10012800114B1A8801709500457093029509920B3E
:10013800C2700E4A85709B182200180A353250701A
:10014800180C9070180E1170D07043341A0B22706E
:100158001A0D1B0F6270A370E17000F089FA70BD70
:100168006C0E0008005801407C00F81F00F0FFFFEB
:1001780010B500F09BFC10BD012310B50C00010068
:10018800584200F0C7F8030A20706370030C000E91
:10019800A370E07010BD000080221B4B520219684A
:1001A8000A431A608022920219681142FCD0802208
:1001B800996B52050A439A63144A15491068084016
:1001C8008021090101431160102150680842FCD1C7
:1001D8000120104A11688143116011680142FCD165
:1001E800DA680D490A40DA600322D9689143013A76
:1001F8000A430C21DA60DA680A40082AFBD1DA6C73
:1002080006490A40DA647047001002400070004056
:10021800FFE7FFFF002002400FC0FFFFFFF3FFFFD3
:100228008023064A5B00116B10B50B43136372B64B
:1002380000F0E4F800F04CFD62B610BD001002407A
:1002480072B601211B4A13688B4313601A4B1B4972
:10025800DA680A40DA601A6819490A401A60DA68E6
:1002680018490A40DA600822D96952420A4307212C
:10027800DA61DA690A40DA61DA691A6A01225242F5
:100288001A621A6A00221A621A6A996A0E4A0A439C
:1002980080219A629A6A49050A409A629A6A596A5A
:1002A8000A4A0A4380215A625A6AC9030A405A62B2
:1002B8005B6A704710E000E0001002400CC0FF804D
:1002C800F6FFF6FEFFFF02FFFFFFFFEFFFFFBFFF96
:1002D80010B5FFF7B5FF044B044A1B68126883F397
:1002E80008881047FEE7C0460011000804110008FE
:1002F8008022064B120510B59A60054B5B689B0778
:1003080001D5FFF7E5FFFFF747FF10BD00ED00E05F
:1003180000700040F7B50091154901924A68002A1B
:1003280014D18027134E7F00130008245D08AC46C3
:1003380001252B4065465B423340013C6B40002C55
:10034800F4D1940001320B51BA42EDD1FF25009A45
:10035800019BD418A24201D1C043FEBD1378060AFE
:1003680043402B409B00C85801327040F2E7C0461A
:10037800880000202083B8ED10B500F04EFC00F096
:100388007DF980239B05154A1968914203D1002203
:100398001A6000F06DF900F077F9114B114C1B88C9
:1003A80011499B0222685B189A42F2D8002AF0D0C1
:1003B8000E4B59680131ECD00D499B685B180D490B
:1003C8008B42E6D801200C494042FFF7A3FF63683F
:1003D8008342DED1FFF77CFFDBE7C046AA55AA556A
:1003E8007C00F81F0010000800EFFFFFFC10000859
:1003F800FFEEFFF7FEEE0000001100080323A02027
:1004080010B51F4C0C21E26AC0051343E3621D4A74
:1004180000F09AFB80231C4A9B02022193611A4830
:100428001A4A00F091FB8023A26BDB0213430122DE
:10043800A363174C23689343236000F039FC6421BD
:1004480000F072FC902100022130FF30890000F09A
:100458006BFC23681B0405D50722030093435B004C
:10046800104018430B4BE060236000236360802337
:10047800DB01A360012322681343236010BDC0463B
:10048800001002401A030000000400501A02000085
:10049800004800400C00FF0303000800102130B59D
:1004A8000C4AD4690C42FCD08024116219188B4282
:1004B80009D14023D1691942FCD013620823936102
:1004C8000733136230BDD5692542FCD01D7801334E
:1004D8009562ECE7004800400F22064BD9691142AB
:1004E80004D00821002099611A627047D8698006F3
:1004F800C00FFAE70048004030B50300411809482A
:100508008B4200D130BD1A78040A624014092500D4
:1005180055402A036C0162400002504080B2684096
:100528000133EDE7FFFF0000F7B51D4C05000100A2
:100538002000FFF7E1FF1B4B6055000A5855552670
:10054800FF23A4461848AA1C184F194D037043707E
:100558008670FE3B691C002A06D173403B70091A5D
:100568002E70FFF799FFF7BD6446247801940124A3
:10057800A444019C002C06D173403B702F0001233A
:100588000D00013AE6E7019C01337440DBB22C70A0
:10059800FF2BF5D1553B3B700F00A93BA91CEFE79A
:1005A800E02C0020E12C0020880400208B0400208F
:1005B8008C04002070B5294DEB6A2C691B021B0CBA
:1005C800A34244D10024AA896B8912041A43A24287
:1005D80021D02889EB88000418436B79032B1CD1A0
:1005E80004261F49FFF7C8FDEC802C8103212B69E5
:1005F8001C4A0133A9541C499AB22B616B54130A43
:100608006A185370194B6C81F01C240CAC81E850AB
:100618000124FFF789FF200070BD2E683602360CD2
:10062800964200D916002B6A002B02D032000C49E2
:1006380098472B89EA881B0413439B19AC89EB80E4
:100648001B0C2B816B8924041C43A41BCEE7013CA3
:10065800E41A63425C41E4B2DDE7C046A818002012
:10066800E32C002038140000391400003414000072
:100678000122014B5A617047A81800200022014B43
:100688005A617047A8180020F0B587B0B74C636965
:10069800002B79D000231A00E2700022A361227196
:1006A800227000272379E2781B021343029300F09B
:1006B80035FB64233D00029A03905A430197059243
:1006C8000097029B002B00D032E1FFF705FF0028BE
:1006D800F7D0A74B5B6ADBB2552B00D032E1002F75
:1006E80000D01EE1052D00D81CE100F017FBA14B3E
:1006F800EE1E0390310018000493FFF7FDFE9E4B99
:100708005A5D049B12029B5D1343984200D009E195
:10071800964DAE62002E3AD02B78012B00D19BE08B
:10072800022B00D1A9E0002BBBD12B002C331B7866
:100738009C46013B012B00D99AE0A88E6B8E2A8F2C
:1007480000041843EB8E12041A432B0031331B7834
:100758001218032B2FD0062B34D1884F0326B8420A
:1007680004D9874FBA4201D830422BD00323052041
:10077800844AA854844AAB540022844BEA54844BDC
:10078800E850FFF7D1FE73E00323052284E7AB6945
:100798000133AB61022B00D96AE02B79EA781B029E
:1007A80013435B009AB2EB70794B120AE8582A712E
:1007B800FFF7BAFE75E780263605B042D7D37048F2
:1007C8008242D4D8A020EA6A40011202120C824266
:1007D80040D82A0028002C32C2CAC2C0128802801F
:1007E8006246022A16D0002B12D0032B16D1694B71
:1007F8002B622B0004222C331A702A0000232D327E
:100808001370537003222B61AA62FFF7D3FE48E7E7
:10081800614BEDE7052B03D0062B18D00223A6E782
:1008280000236B61012304222361564B0320E25409
:1008380000235A4AA354A2185370554BE050FFF7AF
:1008480073FE6369002B00D02BE707B0F0BD544B53
:100858006B62E7E701238AE72B002C331B78042B14
:1008680006D1032E04D1FFF7A5FE002800D018E713
:100878006B69002B00D009E7E7E72B002C331B78C6
:10088800032BF5D1F71E032EF2D02B681B021B0C8D
:100898009F42EDD8EE6A2B693602360C9E423AD159
:1008A800731C2B616B6A002B11D02889EA8800041D
:1008B80010433C493A009847031E08D105200421FB
:1008C800304AA854304AA954304AAB5457E72389D0
:1008D800E2881B041343DB19E3801B0C2381A389E3
:1008E80062891B041343DB1B63811B0CA381042255
:1008F8000320244BE254294BE654E318360A5E7071
:10090800234BE050FFF710FEA38962891B041343B1
:1009180000D0C6E6ACE75A1E9642A9D39E42E6D955
:10092800A6E700273D00CCE6012701920097C8E61C
:1009380000F0F4F9039BC01A059B984200D8C4E65E
:100948000026E5E655225A40012F2FD0542BEBD133
:10095800533B019301330093134B00279D4200D969
:10096800AFE6044BEB181F700135AAE6A818002063
:1009780000480040D4180020D2180020FF0F0008BB
:1009880000000108381400003B1400003C1400006B
:100998003414000081010008F9000008391400002F
:1009A80079010008D718002005140000009B019960
:1009B8008B4205D2094B9D4202D8094B5A55013545
:1009C800009B0133DBB20093009A019B934200D94C
:1009D80077E60027FF2B00D173E6BDE7051400007A
:1009E800D4180020C0460122054B99691142FCD158
:1009F800022299691142FCD099690A439A617047A9
:100A080000200240074B5A68D20703D5064ADA602D
:100A1800064ADA605A68920703D5054A1A61054AF8
:100A28001A61704700200240EFCDAB89050403022C
:100A3800BFAE9D8C161514130222044B59680A4345
:100A48005A60012259680A435A60704700200240E0
:100A580070B50400FFF7D6FF8223094D9B006A6832
:100A680013436B607F239C4300232360FFF7BAFF87
:100A78006B68044A13406B60FFF7DEFF70BDC04629
:100A880000200240F7FDFFFF7F2302009A43131A5C
:100A980080339B089B001B18984201D101207047A6
:100AA80004C8002AF8D00020F9E700001300F0B5C8
:100AB80097B016000F0004000290059103929B0660
:100AC8001FD0002017B0F0BD2000FFF7DDFF002881
:100AD80002D12000FFF7BCFF23007F2293431B1B9A
:100AE80080330193B34200D901963D00019BF61A69
:100AF800E31B5B190493019BDB199D420FD12F0067
:100B0800049C002EE0D1029B039A9C46D943059889
:100B180062444118180093420ED10120D2E72900FF
:100B2800402206A800F048F90498064B06A9984701
:100B38000028C6D04035DBE701330478C85C84421E
:100B4800E8D0BEE709000020F0B58BB0059103217D
:100B58008C46036A64460893436A510909930368FB
:100B68000C40019383680794029343680393C36816
:100B78000493002305990124D94021423CD09107D0
:100B880012D50F2506341C40A400A5402F00D90813
:100B980008AE89008D59BD4306950F25D7092F400A
:100BA800A740069D3D438D5165465C00A540019ECA
:100BB800E943AE43654615402F00A74037430197E8
:100BC800002D11D06746D5083D40A540029E01275B
:100BD8000E403543029501259D40039EAE4395087E
:100BE8003D409D4035430395049D0D402900079DD8
:100BF800A5402C000C4304940133102BBAD1019B5F
:100C08000360039B4360029B8360049BC360089B53
:100C18000362099B43620BB0F0BD10B5FFF700FB00
:100C280010BD0000164B0C22D96810B50800104002
:100C3800114203D0904209D0124810BD80205B6851
:100C480000021B045B0F01339840F6E7DA68D20311
:100C580013D418680C4AC006C0171040094A8018F7
:100C6800DA680A4CD96893021B0FE35C0902890F02
:100C78005843013100F058F8DFE70248F0E7C04672
:100C8800001002400024F40000E548FFD70E0008D9
:100C980010B5FFF7C7FF044B044ADB681B061B0FA0
:100CA800D35CD84010BDC04600100240E80E0008D2
:100CB80010B5FFF7EDFF044B044ADB685B055B0FDB
:100CC800D35CD84010BDC04600100240E00E0008BA
:100CD80010B5FFF7DDFF642100F026F80022074B6E
:100CE800013858609A6007321A60C0220449120617
:100CF8000B6A1B021B0A13430B6210BD10E000E0D5
:100D080000ED00E0024A1368013313607047C046E3
:100D1800E840002010B5FFF7F5FF10BD014B18683B
:100D28007047C046E8400020002934D00123002243
:100D380010B488422CD301242407A14204D2814252
:100D480002D209011B01F8E7E400A14204D2814262
:100D580002D249005B00F8E7884201D3401A1A43DF
:100D68004C08A04202D3001B5C0822438C08A04216
:100D780002D3001B9C082243CC08A04202D3001BCC
:100D8800DC082243002803D01B0901D00909E3E746
:100D9800100010BC704701B5002000F00BF802BD30
:100DA8000029F8D003B5FFF7C1FF0EBC4243891AEA
:100DB8001847C0467047C046F0B5CE46474680B58E
:100DC8000F2A0ED80500561E002A06D00023CC5C38
:100DD8001A00EC5401339642F9D1C0BCB946B0466A
:100DE800F0BD03000B4388469B0734D1102617003B
:100DF800B1460C000300103F3F093F01C519A94443
:100E080066685E60A6689E60E668DE6026681034E4
:100E18001E601E001033AE42F2D1CF1939000F23E5
:100E28000C2610318C461340164217D04446043B1A
:100E38009B089B00FF181437061B0C688D1904319A
:100E48002C60B942F9D16146043359184B441D004E
:100E580003231A40B7E70500561EB7E74D461A00A8
:100E6800B1E7C04632001400000000813DF4737001
:100E78000839D947DDAC5FBE0613DE00000000006C
:100E8800000000000000000000000000000010004A
:100E980008000100000010000800F0000000000039
:100EA800080000010040000F0000000010000000D2
:100EB800000000000000000000000000000000002A
:100EC8000000000000000000000000000000000317
:100ED8000406080C1018203000000000010203046A
:100EE80000000000000000000102030406070809D2
:100EF80070B506000C0000F02BF881230D4DDB00C7
:100F08006A6813436B6072B62300403304CC3260C6
:100F18009C42FBD162B600F013F86B68064A134096
:100F28006B6000F01DF8A869044B18404342584113
:100F380070BDC04600200240F7FBFFFF002F0300F2
:100F480001B40248844601BC604700BFED090008AF
:100F580001B40248844601BC604700BF0D0A00087E
:100F680001B40248844601BC604700BF410A00083A
:04000005080000BB34
:00000001FF
